:020000002928AD
:100008007E14803120007F08E4008B1A0B1D0E2817
:10001800472424288B190B1C13280A2524280B1F76
:1000280024282100111C1D282000111C1D28C5246E
:1000380024282100911C24282000911C2428132501
:1000480020006408FF007E1009002A288F308400F1
:100058008430850047308600003087000C30D52476
:1000680020308400003085002730DB24A030840055
:10007800003085000830DB247E102000C62A0130BD
:100088002000A6070030A73D0030270202300319E0
:100098002602031C532875222000A601A701510837
:1000A800031D63285203031D63284608031D6328A4
:1000B80067240C237C082000A5007B08A4002408E2
:1000C800250403196D282508A3002408A200A4010B
:1000D800A5010130CB070030CC3D00304C02FB308D
:1000E80003194B02031CE328CB01CC013408350467
:1000F800031D85280730F12371082000B50070081A
:10010800D428FD0104307D0203189D280730F1230F
:100118007D35A03E860087017008C03F7108C13F49
:1001280001302000E0006008FD0704307D02031C58
:100138008A283409E0003509E100E00A0319E10AD8
:100148002100200820006007E2002100210820008B
:10015800613DE30000306302333003196202031883
:10016800CD28210020092000E000210021092000DD
:10017800E100E00A0319E10A34086007E2003508E3
:10018800613DE30000306302333003196202031C4F
:10019800D528210021082000B500210020082000D2
:1001A800B4000430F12371082000B3007008B200D5
:1001B8000530F12371082000CE007008CD005108E9
:1001C800031D7A295203031D7A290C0C890C013965
:1001D8004306031DF828FA3044020318FD280130AD
:1001E800E0006008C407FD28C40100300C19013084
:1001F800C30028304402031C0B297030C900173093
:10020800CA00A401A501A201A301B9017A290330FA
:100218003502B73003193402031831290330F000CE
:100228000030F1003508E1003408E000E035E10D68
:10023800E035E10D6008F2006108F30081237009E0
:100248002000E2007109E300E20A0319E30A6208E8
:10025800963EC7001430633D3429A030C7000F30E4
:10026800C8004A084802031D3B29490847020318E9
:1002780047294508031966294908FE3EC900FF3089
:100288004A3DCA006F2903303502B73003193402DA
:10029800031C762908302302993003192202031C13
:1002A80076290F302302A030031922020318762979
:1002B8000A302302A83003192202031C71294508B9
:1002C800031D6B290130E0006008C5077A29013059
:1002D800C9020030CA3BC5017A290130C90700307C
:1002E800CA3D7A294808CA004708C9000130AA0748
:1002F8000030AB3D03302B02EA3003192A02031CFD
:10030800D329AA01AB0103303502B73003193402EF
:10031800031891293D0803199329BD019529BD01A9
:10032800BD0A03304E02213003194D02031C9E29D9
:10033800C101B22902304E02583003194D02031888
:10034800B6290130E0006008C10703304102031CF0
:10035800B52950080319B229D001B629D001D00A0D
:10036800B629D10100303302C8300319320203180C
:10037800CC29D0010130E0006008C20703304202F6
:10038800031CCB290230E0006008D100CC29D10140
:1003980000303302C930031932020318D101023088
:1003A8005106031D08000130A8070030A93D03309D
:1003B8002902EA3003192802031CF229A801A9011D
:1003C80003303502B730031934020318EE293D080B
:1003D8000319F029BD01F229BD01BD0A38084006FC
:1003E8000319072A03302B02E93003192A02031CD8
:1003F8000800AA01AB01D201C001D0014008E00009
:100408006008B80008000130A0070030A13D0130A5
:100418002102F53003192002031C182AD101D20148
:10042800D20AD001D00A0800D00108002000C40177
:10043800A001A101111C292A4608031D292A91138C
:1004480011100030F000F100582420005103031D62
:10045800422A0130F2007208C00704304002031C2F
:10046800422A0130F2007208C007D201333040023C
:10047800031C422A0330F2007208C0005208031D10
:100488004A2A0230F2007208D100C0010230510637
:10049800031D542AC6010130F2007208C007080083
:1004A8004608031D08005108031D08005203031DD8
:1004B8000800C601C60A423099002530980049094B
:1004C800F2004A09F300F20A0319F30A7208FF3E20
:1004D800F000FF30733DF10058241A252100111453
:1004E800080020005008031D8C2A3D08031D8C2A93
:1004F8003C080319852A22000E168E122000BC0122
:10050800B12A22000E128E162000BC01BC0AB12AA4
:100518005008031D9E2A3C080319972A22000E162C
:100528002000BC019C2A22000E122000BC01BC0A3B
:1005380022008E1620003D08031DB12A3C0803192D
:10054800AA2A22008E162000BC01AF2A22008E1291
:100558002000BC01BC0A22000E1620005008031916
:10056800BB2A500C2200031C0E1203180E16200082
:100578003D08031908003D0C2200031C8E120318C5
:100588008E16080075244A302000E5000330E60086
:10059800ED24FF302000E5000430E600E724433076
:1005A8002000E5000030E600E1241A302000E500D4
:1005B8000230E600F3248B170B1722008C1203304D
:1005C8002100A80028082000CF0005302100A9003C
:1005D8000F30A800F130890BEF2AA80BEF2AA90BDE
:1005E800EF2A2000D1014603031DF72A5203031DF9
:1005F800F72A5108031DF72A03304A02E830031985
:1006080049020318F72AE830C9000330CA00F72A5C
:100618002000DE01DF01D423C330710251300319F9
:100628007002031C182BCE2420009919472B003286
:1006380000321725D42371082000DF007008DE007F
:100648000030F000F1005824003200320930200058
:100658005F02603003195E02031C392B0F305F0202
:10066800A13003195E02031C3B2BDE01DF0191134D
:1006780000320032200099151A2520005F08FC007E
:100688005E08FB000800FB01FC01080003302000A5
:100698004F06031D592B2C082D04031D592B0C3014
:1006A800AC000030AD00CF01CF0A4F03031D080096
:1006B8002C1C612B22008C16632B22008C12CE304E
:1006C800200095002C082D0403196F2B0130AC0273
:1006D8000030AD3B08000330F2007208CF00AC01D7
:1006E800AD01FF30950022008C128B122000C6014C
:1006F8000030F000F10058240800F501F6017008F8
:1007080071040319B02BF701F70AF11B952B01307F
:10071800F035F10D890B8C2B0130F4007408F707C4
:10072800892B0130F535F60D890B962B710873026C
:10073800031DA02B70087202031CA72B7008F2027D
:100748007108F33B75140130F136F00C890BA82BB6
:100758000130F702031D952B7608F1007508F000AB
:10076800080022008C018E011F3021008C000F3000
:100778008E000F3023008E0013308C0024008C0173
:100788002100951722009D0127001311121511153C
:1007980020302000E5000530E600F3248B15080022
:1007A80020001608F2007208FA001708F200720812
:1007B800F9007A08F200F3017908F400F5017408E9
:1007C800F500F40172087404F70073087504F80062
:1007D8007808F1007708F0000800F3007308F200C9
:1007E800F20DF20D21001D087206833972069D0074
:1007F8001D140630890BFE2B003221009D149D1814
:10080800032C1C08F1001B08F000080042302000EF
:100818009900FF309700FF3096001708D800160897
:10082800D7001110210011101E302000E5000530FE
:10083800E600E7242530200098000800210015086C
:10084800C03911389500FF3020009500CE30E70000
:100858006708DD000B118B121F30E5000530E6003C
:10086800ED240800033020009B009A01911021001C
:1008780091141D302000E5000530E600E1247F30AA
:1008880020009C0008000B1120005D089500013035
:10089800B6070030B73D3608370403190800B124FD
:1008A8002000B601B70108002000181D622C18109E
:1008B80071089700700896001814080071089700CE
:1008C800700896000800F230200099000530980062
:1008D800111C0800911311100030F000F100582489
:1008E8000800B523F9240F250525BC2436240A243D
:1008F8002224BC2422000E168E16080020005B0855
:100908005C0403198C2C5C088A005B080A0084319B
:1009180027001311080090341A3458341B346334F8
:100928000034003404340334013401340134200029
:10093800530854040319080054088A0053080A008D
:100948008431080020005508560403190800560889
:100958008A0055080A0084310800200059085A0402
:10096800031908005A088A0059080A008431080047
:10097800013021009D00F0309E009F019B019C01E9
:100988000800200011105808F1005708F0005824FA
:10099800A624080020005808F1005708F000582441
:1009A8000800FE0012001E00FE0BD62C0034640066
:1009B80080010131890BDC2C003420006608D4004A
:1009C8006508D300080020006608D6006508D50031
:1009D800080020006608DA006508D9000800200031
:1009E8006608DC006508DB00080078302100990003
:1009F80022009601080020001110210011108B160A
:100A08000800843022009100920108002700131D7D
:100A180008008224080016302100970008002000F2
:100A280091109B24080020001810080020001814BA
:0A0A3800080008000800080008008C
:020000040001F9
:04000E0064FFFFFF8D
:00000001FF
